:100000000C94BF1E0C948D280C94F3280C94DC1EC9
:100010000C94DC1E0C9459290C94DC1E0C94DC1EF0
:100020000C94DC1E0C94DC1E0C94DC1E0C94C82575
:100030000C94DC1E0C94DC1E0C9449280C94DC1EE1
:100040000C94DC1E0C94DC1E0C94DC1E0C94DC1E48
:100050000C94DC1E0C94DC1E0C94DC1E0C94DC1E38
:100060000C94DC1E0C94DC1E07634236B79BD8A7A9
:100070001A39685618AEBAAB558C1D3CB7CC5763CD
:10008000BD6DEDFD753EF6177231BF000000803F7B
:1000900008000000BE922449123EABAAAA2ABECD97
:1000A000CCCC4C3E00000080BEABAAAAAA3E000009
:1000B0000000BF000000803F000000000008417801
:1000C000D3BB4387D1133D190E3CC3BD4282AD2B38
:1000D0003E68EC8276BED98FE1A93E4C80EFFFBE30
:1000E00001C4FF7F3F0000000000B932C8327F32F8
:1000F000CF327F327F327F327F327F327F327F3228
:100100007F327F327F327F327F327F327F327F3267
:100110007F327F327F327F327F327F327F327F3257
:100120007F327F327F32DC327F327F327F327F32EA
:100130007F327F327F327F3288327F327F327F322E
:100140007F327F327F327F327F327F327F327C322A
:10015000AD325035753528357E3534353F351F3550
:100160000000250028002B000000240027002A00A2
:10017000FFE0FFD1AFFF32FFD0FFFEFFE0FFD1AEC7
:10018000FFD0FFFEFFE0FFD11000FFFEFFD0FFE039
:10019000FFC1FFD1AED580A83FD300408D14200011
:1001A000A1C8DA1281FFD9F1DB402EA4A6AFFFD09F
:1001B000FFFE003636FDF51E000000002A3A001F43
:1001C000FB1E00100F1E1A050F0C301C380E700E8F
:1001D0007007E003C0FDBFFFFFF3CF03C006600E52
:1001E000701E781C380C3018194B28080000380095
:1001F00000380000380000380000380000380000E7
:100200003800003800003800003800003800FFFFD8
:10021000FFFFFFFFFFFFFF0038000038000038003D
:1002200000380000380000380000380000380000B6
:100230003800003800003800070A0A0B02FB3E3C79
:100240003C7C78787070E0E00A03060E0208FFC07C
:10025000FFC0FFC00405050B0400F0F0F0F0F00C47
:1002600021421002FE00700070006000E000E0001B
:10027000E000C001C001C00180038003800380074B
:10028000000700070006000E000E000E001C001CF8
:10029000001C001800380038003800700070007032
:1002A000006000E000E000121E5A16020107F8008C
:1002B0001FFE003FFF003C0F00780780780780702A
:1002C0000780700380F003C0F003C0F003C0F003A8
:1002D000C0F003C0F003C0F003C0F003C0F003C0DF
:1002E000F003C0F003C0F003C0F003C07003C0709F
:1002F00003807807807807803807003C0F001FFED6
:10030000000FFE0007F8000A1E3C16050007C00F8C
:10031000C01FC03FC07FC0FBC0F3C0C3C003C00349
:10032000C003C003C003C003C003C003C003C003B5
:10033000C003C003C003C003C003C003C003C003A5
:10034000C003C003C003C003C0111E5A1602010F30
:10035000F8001FFC003FFE007C0F007807007807C4
:1003600080780780F0078000078000078000078002
:10037000000F00001F00001E00003E00007C000077
:10038000F80000F80001F00003E00007C0000F8053
:10039000001F00001F00003E00007C0000F800006D
:1003A000FFFF80FFFF80FFFF80121E5A1602010729
:1003B000F8001FFE003E1F003C07807C038078038E
:1003C000C07803C07803C00003C00003800007802A
:1003D000000F00003E0003FC0003F80003FE0000D5
:1003E0003F00000F800007800003C00003C000032F
:1003F000C0F003C0F003C0F803C07807807C0F8012
:100400003E1F001FFE000FF800141E5A16010000C8
:100410000F80001F80001F80003F80007F80007FD2
:100420008000F78001E78001E78003C780038780B1
:100430000787800F07800E07801E07803C07803CDF
:100440000780780780F00780F00780FFFFF0FFFF4C
:10045000F0FFFFF0000780000780000780000780A2
:10046000000780000780000780121E5A1602007FD6
:10047000FF007FFF007FFF00780000780000780019
:1004800000780000780000780000780000786000B4
:100490007BFC007FFE007E1F007C07807807807059
:1004A00003800003C00003C00003C00003C00003BA
:1004B000C00003C0F003C0F00780F00780780F0091
:1004C0007FFE001FFC000FF800131E5A16020103E6
:1004D000FC000FFF001FFF003F0F803E07807C03E2
:1004E000C07803C07803C0F00000F00000F0000006
:1004F000F00000F1FC00F3FF00F7FF80FE0780FC36
:1005000003C0FC03C0F801C0F801E0F801E0F80105
:10051000E0F801E0F801E07801C07C03C03C07800E
:100520001F0F800FFF0007FC00121E5A160200FF6B
:10053000FFC0FFFFC0FFFFC00003C00003C00007F3
:1005400080000780000780000F00000F00001F00E0
:10055000001E00001E00003C00003C00003C0000AB
:10056000780000780000F80000F00000F00001F0D2
:100570000001E00001E00003C00003C00007C0006C
:100580000780000780000F8000131E5A1602010723
:10059000FC001FFE003E0F803C07807803C07803FC
:1005A000C07803C07803C07803C07803C0380380E4
:1005B0003C07801E0F000FFE0007FC001FFE003CE2
:1005C00007807803807001C0F001C0F001E0F00105
:1005D000E0F001E0F001E0F001E07803C07803C052
:1005E0003E0F801FFF0007FC00131E5A1602010772
:1005F000FC001FFF003E1F807807807803C0700357
:10060000C0F003C0F003E0F001E0F001E0F003E02F
:10061000F003E0F003E07003E07807E03C0FE03F18
:10062000FDE01FF9E007F1E00001C00001C000019A
:10063000C00003C07003C0700380780780380F00CB
:100640003E1F001FFE000FF8000414140B0400F0FE
:10065000F0F0F0F000000000000000000000F0F0FA
:10066000F0F0F0002E2DFEF71906770F1B20FFF992
:1006700024F719F90000000A00000319190C0400FE
:10068000E0E0E0E0E0E0E0E0E0E0E0E0E0E0E0E06A
:10069000E0E0E0000000E0E0E00B0A140F020FF1E0
:1006A000E070E070E070E070E070E070E060C0600A
:1006B000C060C016194B1902000070E00070E00025
:1006C00060C000E1C000E1C000C18000C1803FFF08
:1006D000FC3FFFF801830003870003860003060048
:1006E000070E00FFFFE0FFFFE00E1C000E1C000CD9
:1006F00018000C18001C38001C3800183000387026
:10070000003870001020401201FC0180018001803F
:100710000FF01FF83FFC799E718E718E718E718083
:10072000718079803F801FF00FFC01FE019F018FD7
:100730000187E187E187E187F187798F7FFE3FFCC1
:100740000FF001800180018001801C1B6C200200E1
:1007500000000E0000000C001F8018003FC01800B1
:1007600079E03000F0F03000E0706000E070E00010
:10077000E070C000E071C000F071800070E38000A4
:100780003FE300001F861F8000063FC0000C79E099
:10079000000CF0F00018E0700038E0700030E070FD
:1007A0000070E0700060E07000E0E07000C0F0F009
:1007B000018079E001803FC003001F8017194B1AA8
:1007C000020107F8000FFC001E1E001C0E001C0E8C
:1007D000001C0E001E1C001E3C000FF80007E0006D
:1007E0000FC0701FE0703DE07078F070F07870E03E
:1007F0003C70E01EE0E00FE0E007E0F003C07803AB
:10080000E07C0FF03FFF781FFC7C07F03E040A0AF3
:100810000D040FF0707070707070606060061E1EC6
:100820000C03FB0C1818383870707070F0E0E0E0C2
:10083000E0E0E0E0E0E0E0F0707070703838181848
:100840000C061E1E0C03FBE0607070303838383820
:100850001C1C1C1C1C1C1C1C1C1C1C1C3C38383864
:1008600030707060E00E0D1A16040C18601CE01C4D
:10087000E00CC00780F33CFFFCE79C07800CC01C29
:10088000E03CE0186014153F2207000060000060A3
:100890000000600000600000600000600000600078
:1008A000006000006000FFFFF0FFFFF0006000004C
:1008B00060000060000060000060000060000060F8
:1008C000000060000060000060000609090902FCE9
:1008D0003C78787070E0E0E0C00803030A0107FF8D
:1008E000FFFF030404090300E0E0E0E00A1C380D08
:1008F00002FE00C001C001800180038003000300EC
:1009000003000700060006000E000C000C001C008F
:100910001C00180018003800300030007000700013
:1009200060006000E000C000C0000F193213020137
:100930000FE03FF83EF8783C701C701EE00EE00EB1
:10094000E00EE00EE00EE00EE00EE00EE00EE00E37
:10095000E00EF00E701E701C781C3C3C3FF81FF03F
:1009600007C00819191305000F1F3F7FFFE787070E
:100970000707070707070707070707070707070707
:10098000070F19321302010FF03FF83EFC781C7874
:100990001E700EF00E000E001E001C003C007800C1
:1009A0007800F001E003C007800F001F003E003C0C
:1009B000007800F000FFFEFFFE1019321302010F55
:1009C000F03FF83C1C780E700E700E000E000E000A
:1009D0001C007803F003F000F8001E000E000F006A
:1009E000070007F007F007F00E781E3C7C1FF807A1
:1009F000E011194B130100003C00007C00007C005A
:100A000000FC0001DC0001DC00039C00071C000767
:100A10001C000E1C001C1C003C1C00381C00701C20
:100A200000F01C00E01C00FFFF80FFFF80FFFF8044
:100A3000001C00001C00001C00001C00001C00002A
:100A40001C000F19321302007FFC7FFC7FFC70003A
:100A5000700070007000700073F07FF87C3C781CB0
:100A6000701E600E000E000E000E000E000EE01E46
:100A7000F01C703C7C783FF00FC01019321301015C
:100A80000FF01FFC3C1C781E700EF00EE000E00022
:100A9000E000E3F0E7FCEFFCFC1EF80EF00FF007BF
:100AA000F007F007F0077007780E380E3E3C0FF89D
:100AB00007E00F1932130200FFFEFFFE000E001EBA
:100AC000001C001C003C003800380078007000F06A
:100AD00000F000E001E001E001C003C003800780F6
:100AE000078007000F000F000E00101932130101DC
:100AF0000FF03FFC3C3C781E700E700E700E700EB6
:100B0000381C3C3C0FF00FF03E38381C700EE007EC
:100B1000E007E007E007E007F00F780E3C3C1FF825
:100B200007E01019321302011FF83FFC781E700E07
:100B3000F00FE00FE00FE00FE00FF00F701F783FB5
:100B40003FF70FE7000700070007000E700E700E5A
:100B5000701E703C3C781FF00FE003121209030076
:100B6000E0E0E0E000000000000000000000E0E045
:100B7000E0E00616160901FC38383838000000009D
:100B800000000000003C38383870707060E01513C9
:100B9000392207010000080000380001F0000FC0F2
:100BA000003E0001F80007C0003E0000F80000C051
:100BB0000000F800003E000007C00001F800003E01
:100BC000000007C00001F8000038000008140818F1
:100BD000220706FFFFF0FFFFF0000000000000000A
:100BE0000000000000FFFFF0FFFFF01511332207A7
:100BF00002E00000FC00001F000007E00000F80019
:100C0000001F000007C00000F80000380000F800D6
:100C100007C0003F0000F80007E0001F0000F800D8
:100C200000E000000F19321201011FE03FF87DFCC7
:100C3000F01E600E000E000E001E001C003C00782E
:100C400000F001C0038007800700070007000700CD
:100C50000000000000000700070007001E1E7822A9
:100C600002FB001FF00000FFFE0003FFFF0007E093
:100C70001FC00F8003E01E0000F03C000070381F12
:100C80003878703FB838707DF838F070783CE0F014
:100C9000781CE0E0381CE0E0381CE0E0381CE0E0C4
:100CA000381CE0E0381CE0E03838F0E0783870704C
:100CB00078787078FEF0783FDFE0381F0FC03C0096
:100CC00000001E0000000F80000007E0000003FF8E
:100CD000F80000FFF800001FF00018194B1A01007F
:100CE000003C00007C00007E0000FE0000EE0000E2
:100CF000EF0001E70001C78003C3800383C00783BF
:100D0000C00701C00701E00F00E00E00F01FFFF078
:100D10001FFFF01FFFF83C003838003C78001C70C3
:100D2000001E70001EF0000EE0000F12194B17039A
:100D300000FFF800FFFE00FFFF00E00F80E00780EB
:100D4000E00380E00380E00380E00780E00F00FF25
:100D5000FE00FFFC00FFFE00E00F00E00380E00368
:100D6000C0E001C0E001C0E001C0E003C0E007C096
:100D7000E00F80FFFF00FFFE00FFF80013194B1784
:100D8000020103FE000FFF801E03C03C01C03800BB
:100D9000E07000E0700000700000E00000E0000083
:100DA000E00000E00000E00000E00000E00000E003
:100DB0000000E000007000007000E07000E038010A
:100DC000E03C01C01F07800FFF0001FC0014194B1D
:100DD000190300FFF000FFFE00FFFF00E01F80E0AE
:100DE00007C0E003C0E001E0E000E0E000F0E00068
:100DF000F0E00070E00070E00070E00070E0007073
:100E0000E000F0E000F0E000E0E001E0E003C0E03E
:100E100007C0E01F80FFFF00FFFC00FFF00010197B
:100E200032150300FFFEFFFEFFFEE000E000E000E1
:100E3000E000E000E000E000E000FFFEFFFEFFFE5B
:100E4000E000E000E000E000E000E000E000E000A2
:100E5000FFFFFFFFFFFF0F1932140300FFFEFFFE2D
:100E6000FFFEE000E000E000E000E000E000E00065
:100E7000E000FFFCFFFCFFFCE000E000E000E00021
:100E8000E000E000E000E000E000E000E000151914
:100E90004B1A020101FF8007FFC00FFFE01E00F0A8
:100EA0003C0078780038700000700000F00000E02E
:100EB0000000E00000E00FF8E00FF8E00FF8E000BD
:100EC00038F000387000387000387800383C00384E
:100ED0003E00381F00F80FFFF807FFF000FF8012F8
:100EE000194B180300E001C0E001C0E001C0E001BF
:100EF000C0E001C0E001C0E001C0E001C0E001C00D
:100F0000E001C0E001C0FFFFC0FFFFC0FFFFC0E085
:100F100001C0E001C0E001C0E001C0E001C0E001AB
:100F2000C0E001C0E001C0E001C0E001C0E001C0DC
:100F3000031919090300E0E0E0E0E0E0E0E0E0E0B0
:100F4000E0E0E0E0E0E0E0E0E0E0E0E0E0E0E00E73
:100F50001932130200001C001C001C001C001C00A5
:100F60001C001C001C001C001C001C001C001C00A1
:100F70001C001C001C001C001CE01CE01CF03C7849
:100F8000787FF03FE00FC012194B170300E0078095
:100F9000E00F00E01E00E03C00E07800E0F000E13F
:100FA000E000E3C000E78000EF0000FE0000FF006B
:100FB00000EF8000E78000E7C000E3E000E1F00020
:100FC000E0F800E07800E03C00E03E00E01F00E0D8
:100FD0000F80E007C0E003C00F1932130300E000E8
:100FE000E000E000E000E000E000E000E000E00001
:100FF000E000E000E000E000E000E000E000E000F1
:10100000E000E000E000E000E000FFFEFFFEFFFE89
:101010001919641F0300F8000F80FC001F80FC00FA
:101020001F80FC001F80EE003B80EE003B80EF0045
:101030007B80E7007380E7007380E780F380E380C4
:10104000E380E380E380E1C1C380E1C1C380E1C10B
:10105000C380E0E38380E0E38380E0F78380E07790
:101060000380E0770380E07F0380E03E0380E03E82
:101070000380E01C0380E01C038013194B1903005C
:10108000F800E0F800E0FC00E0FE00E0FE00E0EF29
:1010900000E0EF00E0E780E0E780E0E3C0E0E3C0ED
:1010A000E0E1E0E0E0E0E0E0F0E0E078E0E078E0FF
:1010B000E03CE0E03CE0E01EE0E01EE0E00FE0E0CD
:1010C0000FE0E007E0E003E0E003E016194B1A024E
:1010D0000103FF000FFFC01FFFE03E01F03800706A
:1010E000780078700038F00038F0001CE0001CE058
:1010F000001CE0001CE0001CE0001CE0001CF000F4
:101100003C7000387000387800783800703C00F08F
:101110001F03E00FFFC007FF8000FC00101932150D
:101120000300FFE0FFFCFFFEE01EE00FE007E0072A
:10113000E007E007E00FE01EFFFEFFFCFFE0E0003D
:10114000E000E000E000E000E000E000E000E0009F
:10115000E000E00018194B1B020103FF000FFFC065
:101160001FFFE03E01F0380070780078700038F022
:101170000038F0001CE0001CE0001CE0001CE00057
:101180001CE0001CE0001CF0003C700038700038CF
:101190007800783800703C00F01F03E00FFFFF0775
:1011A000FFFF00FFFF11194B150300FFF000FFFCCC
:1011B00000FFFE00E01F00E00F00E00700E0070076
:1011C000E00700E00F00E01E00FFFC00FFF000FF62
:1011D000FC00E03C00E01E00E00E00E00E00E00E2F
:1011E00000E00F00E00700E00700E00700E0070074
:1011F000E00700E0078012194B16020107FC001FF0
:10120000FE003FFF0078078070038070038070004D
:10121000007000007800007C00003FC0001FFC0050
:1012200007FF00003F800007800003C00001C0E00E
:1012300001C0E001C0F001C07003C07C0F803FFF1F
:10124000001FFE0007F00013194B150100FFFFE01F
:10125000FFFFE0FFFFE000E00000E00000E0000032
:10126000E00000E00000E00000E00000E00000E03E
:101270000000E00000E00000E00000E00000E0000E
:1012800000E00000E00000E00000E00000E00000FE
:10129000E00000E00000E00013194B190300E0003B
:1012A000E0E000E0E000E0E000E0E000E0E000E09E
:1012B000E000E0E000E0E000E0E000E0E000E0E08E
:1012C00000E0E000E0E000E0E000E0E000E0E0005E
:1012D000E0F000E0F001E07001C07803C03E07C01C
:1012E0003FFF801FFF0003F80015194B160100F0A7
:1012F0000078F000F0F000F07800F07801E078017C
:10130000E03C01C03C03C03C03C01C03801E0780BE
:101310000E07800E07000F0F00070F00070E0007D3
:101320009E00039E00039C0003FC0001FC0001F8EA
:101330000001F80000F80000F0001F19642101000E
:10134000E007C00EF007C00EF007C01E7007C01EF9
:10135000700EE01C780EE03C780EE03C380EF03861
:10136000381C70383C1C70781C1C70781C3C387021
:101370001C3838701E3838F00E3838E00E701CE01B
:101380000E701CE007701DC007701DC007E00FC085
:1013900007E00FC003E00F8003E0078003C0078071
:1013A00001C0070016194B1801007C00783C00F0C2
:1013B0001E01E01F01E00F03C0078780078780033D
:1013C000CF0001EE0001FE0000FC0000780000FCF0
:1013D0000000FC0001DE0003CF00038F00078780C0
:1013E0000F03C00E03C01E01E03C01F03800F0788E
:1013F0000078F0007C15194B170100F00078780098
:10140000707800F03C01E01E01E01E03C00F038075
:101410000F0780078700038F0003CE0001FC000147
:10142000FC0000F800007800007000007000007000
:10143000000070000070000070000070000070007C
:1014400000700000700012194B1602007FFFC07F71
:10145000FFC07FFFC00003C0000780000F80001F97
:1014600000001E00003C00007C0000F80000F000BE
:1014700001E00003E00007C0000F80000F00001F24
:1014800000003E00007C0000780000F00000FFFF3C
:10149000C0FFFFC0FFFFC00720200E04F9FEFEE0E2
:1014A000E0E0E0E0E0E0E0E0E0E0E0E0E0E0E0E03C
:1014B000E0E0E0E0E0E0E0E0E0E0E0FEFE0A1C3832
:1014C0000D02FEC000C000E000E00060006000709F
:1014D000003000300038003800180018001C000CE4
:1014E000000C000E000600060006000700030003C3
:1014F00000038001800180018001C00620200E04CD
:10150000F9FCFC1C1C1C1C1C1C1C1C1C1C1C1C1C7E
:101510001C1C1C1C1C1C1C1C1C1C1C1C1C1C1CFC2B
:10152000FC12153F22080000C00001E00001E000AD
:1015300001E000033000033000021000061800062E
:1015400018000C0C000C0C000C0C001806001806FF
:101550000018060030030030030070018060018035
:10156000600180C000C01102061100FBFFFF80FF78
:10157000FF80060606080015E0E07038180C0F1210
:10158000241302000FF03FFC3C3C781E700E000E4E
:10159000000E0FFE3FFE7C0E700EE00EE01EE01E01
:1015A000F03E78EE3FEE0F8E101932140200E0008C
:1015B000E000E000E000E000E000E000E3F0EFF831
:1015C000EE7CF81EF00EF00FE007E007E007E00702
:1015D000E007E00FF00EF00EF81CFE7CEFF8E3E001
:1015E0000E12241202000FE03FF07C78703C701C59
:1015F000F01CE000E000E000E000E000E000F01C93
:10160000701C703C3C781FF00FE01019321402007F
:1016100000070007000700070007000700070FC7C3
:101620001FF73C7F781F701F700FE00FE007E00787
:10163000E007E007E007700F700F381F3E3F0FF71D
:1016400007C710122413020007E01FF83C7C781E25
:10165000700EF00EE00EFFFEFFFFE000E000E00085
:10166000700E700E781E3E7C1FF807E00B19320CCE
:10167000010007E00FE01F201C001C001C001C00E4
:10168000FFE0FFE01C001C001C001C001C001C00F4
:101690001C001C001C001C001C001C001C001C006A
:1016A0001C001C001019321402F907E71FF73E7FD7
:1016B000781F700FF00FE007E007E007E007E00792
:1016C000E007F00F700F781F3E7F1FF70FC700076E
:1016D000000F700E781E3C3C1FF807E00F19321304
:1016E0000200E000E000E000E000E000E000E000D8
:1016F000E3F0EFF8FC7CF81CF01EE00EE00EE00ECC
:10170000E00EE00EE00EE00EE00EE00EE00EE00E69
:10171000E00EE00E031919070200E0E0E00000000F
:1017200000E0E0E0E0E0E0E0E0E0E0E0E0E0E0E099
:10173000E0E0E00520200902F93838380000000018
:101740003838383838383838383838383838383819
:1017500038383838383838F0E00E1932110200E0E5
:1017600000E000E000E000E000E000E000E078E001
:10177000F0E1E0E1C0E3C0E780EF00FE00FE00EF33
:1017800000E780E780E3C0E1E0E1E0E0F0E078E05E
:101790003C031919080200E0E0E0E0E0E0E0E0E0EE
:1017A000E0E0E0E0E0E0E0E0E0E0E0E0E0E0E0E039
:1017B0001A12481E0200E3E07C00EFF1FF00FC7B00
:1017C0008F80F83F0380F01E03C0E01C01C0E01CC6
:1017D00001C0E01C01C0E01C01C0E01C01C0E01C15
:1017E00001C0E01C01C0E01C01C0E01C01C0E01C05
:1017F00001C0E01C01C0E01C01C0E01C01C00F12D0
:1018000024130200E3F0EFF8FC7CF81EF01EE00E5B
:10181000E00EE00EE00EE00EE00EE00EE00EE00E58
:10182000E00EE00EE00EE00E11123615020007F099
:10183000001FFC003E3E00780F00700700F007001C
:10184000F00780E00380E00380E00380E00380F0A5
:101850000780F00780700700780F003E3E001FFCF5
:101860000007F0001019321402F9E3F0E7F8FE3C2B
:10187000F81EF00EF00FE007E007E007E007E007D2
:10188000E007F00FF00EF81EFE7CEFF8E3F0E0004A
:10189000E000E000E000E000E000E0001019321598
:1018A00002F907C71FF73E3F781F700FF00FE007E0
:1018B000E007E007E007E007E007F00F700F781F90
:1018C0003E7F1FF707C70007000700070007000754
:1018D000000700070A12240C0200E7C0EFC0FE0058
:1018E000F800F000E000E000E000E000E000E000D0
:1018F000E000E000E000E000E000E000E0000E12A8
:10190000241202001FC07FF078F8F038E038E000C1
:10191000F0007E003FE00FF800FC003C001CE01CE3
:10192000F03C78F83FF01FC00A162C0C01011C0097
:101930001C001C001C00FFC0FFC01C001C001C0081
:101940001C001C001C001C001C001C001C001C00B7
:101950001C001C001E000FC007C00F122413020041
:10196000E00EE00EE00EE00EE00EE00EE00EE00E07
:10197000E00EE00EE00EE00EE00EF01EF03E7C7E8B
:101980003FEE1F8E101224120100E007F007F00F47
:10199000700E780E381E381C3C1C1C381E380E3851
:1019A0000E700F7007E007E003E003C003C01A12D7
:1019B000481C0100E01E01C0E03E03C0E03F038080
:1019C000703F03807077038070730700387387005F
:1019D0003873870038E38E0018E1CE001CE1CE009A
:1019E0001DC1CE001DC0DC000FC0FC000F80FC003C
:1019F0000F80780007807800078078001112361376
:101A00000100700700780E003C1E001E1C001E38EE
:101A1000000F700007F00003E00003C00003E000C7
:101A200007E0000FF0000E78001C3C003C1C007822
:101A30001E00700F00F007801019321201F9E00744
:101A4000F007700F700E780E381E3C1C1C1C1C3CDE
:101A50001E380E380F70077007F007E003E003E050
:101A600001C001C0038003800780070007000F004A
:101A70000D12241102007FF87FF80078007000F04A
:101A800001E003C003C007800F001F001E003C00E0
:101A900078007800F000FFF8FFF80B23461103F8F8
:101AA00001E003E007800F000E000E000E000E00A4
:101AB0000E000E000E000E000E001E001C003C006A
:101AC000F800F000F8003C001C001E000E000E00A4
:101AD0000E000E000E000E000E000E000E0007009D
:101AE000078003E001E00225250C05F7C0C0C0C057
:101AF000C0C0C0C0C0C0C0C0C0C0C0C0C0C0C0C0E6
:101B0000C0C0C0C0C0C0C0C0C0C0C0C0C0C0C0C0D5
:101B1000C00B23461103F8F000F8003C001C000E37
:101B2000000E000E000E000E000E000E000E000E45
:101B3000000F000700078003E001E003E0078007D3
:101B4000000F000E000E000E000E000E000E000E24
:101B5000000E000E001C003C00F800F00012040C07
:101B60001200071F01C03FE78079FF00E03E00FF41
:101B7000FFFFFFFFFFFFFFFFFFFFFFFFFFFFFFFF75
:101B8000FFFFFFFFFFFFFFFFFFFFFFFFFFFFFFFF65
:101B90000000000A00000319190D05F9E0E0E0005B
:101BA0000000E0E0E0E0E0E0E0E0E0E0E0E0E0E0F5
:101BB000E0E0E0E0E00E1A341302FC0030003000F8
:101BC0002000600FE03FF07CF870DC709CF19CE13D
:101BD00080E180E300E300E300E200F61C761C7C79
:101BE0003C3C783FF00FC018001800100030001186
:101BF0001A4E13010000400007FC000FFE001E0FEC
:101C0000003C0780380380380000380000380000AE
:101C1000380000FFE000FFE0003800003800003826
:101C2000000038000038000038000038000038009C
:101C300000380000380000380000380000FFFF00C6
:101C4000FFFF00121339140106400080E001C0714B
:101C5000E3803FFF001F3E001C0E0018060030030B
:101C6000003003003003003003003003001806008A
:101C70001C0E001F3E0037FB0071E180E001C040F8
:101C8000008012194B140100F001C07003C07803EA
:101C9000803807803C07001C0F001E0E00FE0FC09E
:101CA000FF1FC0071C0007B80003B80003F000FFC7
:101CB000FFC0FFFFC000E00000E00000E00000E027
:101CC0000000E00000E00000E00000E00000E000B4
:101CD00000E0000221210C05F9C0C0C0C0C0C0C096
:101CE000C0C0C0C0C0C0C00000000000C0C0C0C0B4
:101CF000C0C0C0C0C0C0C0C0C0C00C1F3E1002FBEE
:101D00001FE03FE0382070007000700078007C0019
:101D10003E001F800FC03FE078F0F070E070E07090
:101D2000E0F0F1E07FC03F801F8007E001E000F0BD
:101D300000700070007000F041E07FC03F800A0337
:101D4000060A0016E1C0E1C0E1C01A19641E0201D2
:101D500000FFC00003FFF000078078000E001C00A9
:101D60001C7F0E0039FF870073E3C3006381E180AD
:101D70006780E180C70000C0C70000C0C70000C086
:101D8000C70000C0C70000C0C70000C0C700E08097
:101D90006381E18063C3C18031FF8300307F07002E
:101DA00018000E000E001C000780780001FFE00004
:101DB000007F80000C11220E01081F803FC078E0D8
:101DC0006060006007E03FE038606060606060E095
:101DD00071E03F601E6000000000FFF00D0E1C135C
:101DE00003020E381C38387038E070E071C0E3C070
:101DF000E3C071C070E038E018701C380E3812086B
:101E000018150207FFFFC0FFFFC00000C00000C0A0
:101E10000000C00000C00000C00000C0FF1A19642C
:101E20001E020100FFC00003FFF000078078000ED3
:101E3000FF9C0018FFCE0030C1E70070C063006057
:101E4000C0618060C06180C0C0C0C0C0FF80C0C031
:101E5000FF80C0C0C1C0C0C0C0C0C0C0C0C0C0C082
:101E6000C0E18060C0618060C0618030C0630038C4
:101E70000007001C000E000F003C0007C1F8000125
:101E8000FFE000007F80000A02040A0016FFC0FF86
:101E9000C00707070B021238C4828282C478141567
:101EA0003F2207000060000060000060000060004A
:101EB000006000006000FFFFF0FFFFF00060000026
:101EC00060000060000060000060000060000060D2
:101ED00000000000000000000000000000FFFFF014
:101EE000FFFFF00A0D1A0C010D3F807F8061C0E1F9
:101EF000C001C0038007800E001C003800F000FF06
:101F0000C0FFC00A0E1C0D020C7F80FFC0C1C001C3
:101F1000C007800E000F8003C000C0C0C0C0C0E377
:101F2000807F803E000606060802151C3C38706063
:101F3000C0FF101F3E1402FA07FF1F8C3F8C7F8CDE
:101F4000FF8CFF8CFF8CFF8CFF8C7F8C7F8C1F8C19
:101F5000078C018C018C018C018C018C018C018C13
:101F6000018C018C018C018C018C018C018C018C09
:101F7000018C018C018C03040409030AE0E0E0E019
:101F80000809090902F720203C3E070387FFFC05EA
:101F90000D0D0A020C3878F8981818181818181827
:101FA00018180C10200E01091F803FC070E0E0607F
:101FB000C070C030C030C030C070E07070E03FC052
:101FC0001F8000000000FFF00D0E1C130302E380D1
:101FD000E1C070C038E038701C701C381E381C70AE
:101FE000387038E070C0E1C0E380171B511B02005D
:101FF0003800C07801C0F80180D8038018030018A9
:102000000700180600180E00180C00181800181801
:102010000018300018700018607000E07000C0F008
:1020200001C1B0018130038330030630070C300654
:102030000FFE0E0FFE0C003018003018003030007C
:1020400030171B511B02003800E07801C0F80180F6
:10205000D80380180300180700180600180E00188F
:102060000C00181C001818001838001830001870E0
:10207000F800E3FC00C38E01C70601800603800E52
:1020800003000C0700380600700E00E00C03C01CB3
:1020900007801807FE3007FE181A4E1B02000000CA
:1020A000187F8038FFC070C1C0600380E00E00C0A0
:1020B0000F81C003C18000C380C0C700C0C600E359
:1020C0008E007F8C1C3E1C3C00183C00306C007065
:1020D000CC0061CC00E38C00C30C01C7FF0187FF7B
:1020E00003000C07000C06000C0E000C0F19321236
:1020F00002F901C001C001C000000000000001C0E1
:1021000001C001C001C003C007800F003E007C0079
:102110007800F000E000E000E008F00E783C3FFCC2
:102120001FF807E01823691A010001C00001E00050
:1021300000E0000070000030000018000000000007
:102140000000000000000000003C00007C00007E59
:102150000000FE0000EE0000EF0001E70001C78074
:1021600003C3800383C00783C00701C00701E00FDA
:1021700000E00E00F01FFFF01FFFF01FFFF83C0013
:102180003838003C78001C70001E70001EF0000EF5
:10219000E0000F1823691A01000007800007000003
:1021A0000E00000C00001C000018000000000000E1
:1021B00000000000000000003C00007C00007E00E9
:1021C00000FE0000EE0000EF0001E70001C7800301
:1021D000C3800383C00783C00701C00701E00F006D
:1021E000E00E00F01FFFF01FFFF01FFFF83C00386B
:1021F00038003C78001C70001E70001EF0000EE0DD
:10220000000F1823691A0100003C00007C00006EDA
:102210000000E60000C30001830000000000000091
:10222000000000000000003C00007C00007E000078
:10223000FE0000EE0000EF0001E70001C78003C3CD
:10224000800383C00783C00701C00701E00F00E0DF
:102250000E00F01FFFF01FFFF01FFFF83C003838A2
:10226000003C78001C70001E70001EF0000EE000A4
:102270000F1821631A010000F18001FF00019F0087
:10228000000000000000000000000000000000004E
:102290003C00007C00007E0000FE0000EE0000EF2D
:1022A0000001E70001C78003C3800383C00783C028
:1022B0000701C00701E00F00E00E00F01FFFF01F54
:1022C000FFF01FFFF83C003838003C78001C70001D
:1022D0001E70001EF0000EE0000F1921841900008E
:1022E00000E1C00000E1C00000E1C000000000000B
:1022F00000000000000000000000000000000000DE
:10230000003E0000003E0000003E0000007F000094
:102310000077000000F7800000E3800000E3C000C9
:1023200001E3C00001C1C00003C1E0000380E00080
:102330000780F00007007000070070000FFFF80032
:102340000FFFF8001FFFFC001C001C001C001E00FB
:102350003C000E0038000E0078000F0070000700EF
:10236000F000078018246C19010000380000C40038
:1023700000820000820000820000C400007C000097
:102380000000000000000000000000003C00007C95
:1023900000007E0000FE0000EE0000EF0001E700FC
:1023A00001C78003C3800383800783C00781C00700
:1023B00001E00F00E00E00F01FFFF01FFFF01FFF15
:1023C000F83C003838003C78003C78001C70001E57
:1023D000F0000EE0000F1F19642201000007FFFC4F
:1023E000000FFFFC000FFFFC001FC000001DC0001D
:1023F000003DC0000039C0000079C00000F1C000FD
:1024000000F1C00001E1C00001E1FFFC03C1FFFCDD
:1024100003C1FFFC0781C00007FFC0000FFFC00021
:102420000FFFC0001E01C0001C01C0003C01C00025
:102430003801C0007801FFFE7001FFFEF001FFFED1
:102440001321631702F903FE000FFF801E03C03C37
:1024500001C03800E07000E0700000700000E00093
:1024600000E00000E00000E00000E00000E000000C
:10247000E00000E00000E000007000007000E0708C
:1024800000E03801E03C01C01F07800FFF0003FCA3
:1024900000004000007800007C00001E00000600E4
:1024A00000060001FE0001FC001023461503001C7D
:1024B000000E0007000700038001800000000000FC
:1024C000000000FFFEFFFEFFFEE000E000E000E095
:1024D00000E000E000E000E000FFFEFFFEFFFEE0A5
:1024E00000E000E000E000E000E000E000E000FFCD
:1024F000FFFFFFFFFF102346150300007000F000F0
:10250000E001C0018003000000000000000000FFA7
:10251000FEFFFEFFFEE000E000E000E000E000E083
:1025200000E000E000FFFEFFFEFFFEE000E000E054
:1025300000E000E000E000E000E000FFFFFFFFFF40
:10254000FF10234615030007C007C00EE00C601CF7
:102550007018300000000000000000FFFEFFFEFFCA
:10256000FEE000E000E000E000E000E000E000E06D
:1025700000FFFEFFFEFFFEE000E000E000E000E004
:1025800000E000E000E000FFFFFFFFFFFF1021423E
:102590001503001C701C701C70000000000000007F
:1025A000000000FFFEFFFEFFFEE000E000E000E0B4
:1025B00000E000E000E000E000FFFEFFFEFFFEE0C4
:1025C00000E000E000E000E000E000E000E000FFEC
:1025D000FFFFFFFFFF062323090000F07038181CDF
:1025E0000C000000001C1C1C1C1C1C1C1C1C1C1CAB
:1025F0001C1C1C1C1C1C1C1C1C1C1C1C1C1C06232A
:10260000230903001C383070E0C000000000E0E047
:10261000E0E0E0E0E0E0E0E0E0E0E0E0E0E0E0E0BA
:10262000E0E0E0E0E0E0E00923460900001E003EB3
:1026300000370073006380C18000000000000000CC
:10264000001C001C001C001C001C001C001C001CAA
:10265000001C001C001C001C001C001C001C001C9A
:10266000001C001C001C001C001C001C001C001C8A
:10267000001C000A21420A0000E1C0E1C0E1C000E4
:102680000000000000000000001C001C001C001CDA
:10269000001C001C001C001C001C001C001C001C5A
:1026A000001C001C001C001C001C001C001C001C4A
:1026B000001C001C001C001C001C0016194B1800FC
:1026C000001FFC001FFF801FFFC01C07E01C00F064
:1026D0001C00781C00781C003C1C003C1C001C1CCE
:1026E000001CFFF01CFFF01CFFF01C1C001C1C0059
:1026F0001C1C003C1C00381C00781C00781C00F0DE
:102700001C07E01FFFC01FFF801FFC00132163197F
:10271000030003CC0007FC000EF8000000000000DE
:1027200000000000000000000000F800E0F800E0F9
:10273000FC00E0FE00E0FE00E0EF00E0EF00E0E77C
:1027400080E0E780E0E3C0E0E3C0E0E1E0E0E0E07B
:10275000E0E0F0E0E078E0E078E0E03CE0E03CE081
:10276000E01EE0E01EE0E00FE0E00FE0E007E0E068
:1027700003E0E003E016246C1A020003C00001C06D
:102780000000E00000600000700000380000180049
:1027900000000000000000000000000003FF000F28
:1027A000FFC01FFFE03E01F0380070780078700035
:1027B00038F00038F0001CE0001CE0001CE0001CB9
:1027C000E0001CE0001CE0001CF0003C70003870D1
:1027D00000387800783800703C00F01F03E00FFFED
:1027E000C007FF8000FC0016246C1A0200000F00D6
:1027F000000E00001C0000180000380000700000EF
:10280000600000000000000000000000000003FF66
:10281000000FFFC01FFFE03E01F038007078007825
:10282000700038F00038F0001CE0001CE0001CE0F4
:10283000001CE0001CE0001CE0001CF0003C7000EC
:10284000387000387800783800703C00F01F03E0E2
:102850000FFFC007FF8000FC0016246C1A02000066
:10286000780000780000FC0000CE0001CE00038755
:102870000003030000000000000000000000000052
:1028800003FF000FFFC01FFFE03E01F0380070782B
:102890000078700038F00038F0001CE0001CE00008
:1028A0001CE0001CE0001CE0001CE0001CF0003CF0
:1028B0007000387000387800783800703C00F01FE5
:1028C00003E00FFFC007FF8000FC001621631A021F
:1028D0000001F30003FF00031E00000000000000E1
:1028E00000000000000000000003FF000FFFC01FF9
:1028F000FFE03E01F0380070780078700038F0009A
:1029000038F0001CE0001CE0001CE0001CE0001C93
:10291000E0001CE0001CF0003C70003870003878CB
:1029200000783800703C00F01F03E00FFFC007FF85
:102930008000FC001621631A020001C38001C380DD
:1029400001C3800000000000000000000000000043
:10295000000003FF000FFFC01FFFE03E01F0380042
:1029600070780078700038F00038F0001CE0001C2F
:10297000E0001CE0001CE0001CE0001CE0001CF07B
:10298000003C7000387000387800783800703C00E7
:10299000F01F03E00FFFC007FF8000FC0012133997
:1029A000220801400080E001C07003803807001851
:1029B00006000C0C0006180003300001E00000C007
:1029C0000001E0000330000618000C0C001806009F
:1029D000300300600180E001C0400080161F5D1AD6
:1029E00002FD00001800003C00003803FF780FFFD4
:1029F000F01FFFF03E01F03801F07803F87007B8DF
:102A0000F00F3CF00F3CE01E1CE03C1CE03C1CE0E6
:102A1000781CE0F01CE0E01CF1E03C73C0387380EF
:102A2000387F80783F00703E00F01F03E03FFFC01A
:102A30003FFF8079FC00F00000E000002000001360
:102A4000246C19030007000003800003800001C00C
:102A50000000E00000600000300000000000000006
:102A6000000000000000E000E0E000E0E000E0E046
:102A700000E0E000E0E000E0E000E0E000E0E00096
:102A8000E0E000E0E000E0E000E0E000E0E000E0A6
:102A9000E000E0E000E0E000E0F000E0F001E070E5
:102AA00001C07803C03E07C03FFF801FFF0003F84E
:102AB0000013246C190300001C00003C00003800C7
:102AC00000700000600000C00001C00000000000B5
:102AD0000000000000000000E000E0E000E0E00096
:102AE000E0E000E0E000E0E000E0E000E0E000E046
:102AF000E000E0E000E0E000E0E000E0E000E0E036
:102B000000E0E000E0E000E0E000E0F000E0F001E4
:102B1000E07001C07803C03E07C03FFF801FFF0088
:102B200003F80013246C19030000E00001F0000119
:102B3000F00003B800031C00060C00060E000000A5
:102B400000000000000000000000E000E0E000E005
:102B5000E000E0E000E0E000E0E000E0E000E0E0D5
:102B600000E0E000E0E000E0E000E0E000E0E000A5
:102B7000E0E000E0E000E0E000E0E000E0F000E0A5
:102B8000F001E07001C07803C03E07C03FFF801F26
:102B9000FF0003F800132163190300070E00070E5E
:102BA00000070E0000000000000000000000000010
:102BB000000000E000E0E000E0E000E0E000E0E035
:102BC00000E0E000E0E000E0E000E0E000E0E00045
:102BD000E0E000E0E000E0E000E0E000E0E000E055
:102BE000E000E0E000E0F000E0F001E07001C0781B
:102BF00003C03E07C03FFF801FFF0003F8001523FE
:102C000069170100000E00001E00001C00003800C3
:102C10000030000060000000000000000000000024
:102C20000000F000787800707800F03C01E01E01B0
:102C3000E01E03C00F03800F0780078700038F008B
:102C400003CE0001FC0001FC0000F8000078000049
:102C500070000070000070000070000070000070D4
:102C60000000700000700000700000700010193249
:102C7000150300E000E000E000E000FFE0FFFCFFE3
:102C8000FEE03EE00FE007E007E007E007E007E0D6
:102C90000FE03EFFFEFFFCFFE0E000E000E000E0B0
:102CA00000E000E00011194B13020007E0001FF8DC
:102CB000007E7C00703C00F01C00E01C00E01C006A
:102CC000E03800E0F800E1E000E1C000E1C000E130
:102CD000E000E1F000E0FC00E03F00E00F00E00772
:102CE00080E00380E00380E70380E38380E3E78004
:102CF000E1FF00E07C000F1B361302000E0007000E
:102D00000380038001C000C00000000000000FF03D
:102D10003FFC3C3C781E700E000E000E0FFE3FFE86
:102D20007C0E700EE00EE01EE01EF03E78EE3FEEF0
:102D30000F8E0F1C38130200007000E000E001C08D
:102D40000380030006000000000000000FF03FFCBD
:102D50003C3C781E700E000E000E0FFE3FFE7C0EF7
:102D6000700EE00EE01EE01EF03E78EE3FEE0F8E9D
:102D70000F1C3813020003C007C007E00EE00C7000
:102D80001C3018180000000000000FF03FFC3C3C15
:102D9000781E700E000E000E0FFE3FFE7C0E700EB1
:102DA000E00EE01EE01EF03E78EE3FEE0F8E0F19B3
:102DB000321302000F981FF019E00000000000001D
:102DC00000000FF03FFC3C3C781E700E000E000E21
:102DD0000FFE3FFE7C0E700EE00EE01EE01EF03E89
:102DE00078EE3FEE0F8E0F19321302001C381C389C
:102DF0001C3800000000000000000FF03FFC3C3CCD
:102E0000781E700E000E000E0FFE3FFE7C0E700E40
:102E1000E00EE01EE01EF03E78EE3FEE0F8E0F1D3E
:102E20003A13020003800C400820082008200C40C0
:102E300007C000000000000000000FF03FFC3C7CD9
:102E4000781E701E001E001E0FFE3FFE7C0E700ED0
:102E5000E00EE01EE01EF03E78EE3FEE0F8E1B12FD
:102E6000481F02000FE07E003FF1FF007C79C78021
:102E7000701F81C0700F01C0000F00E0000E00E065
:102E80000FFFFFE03FFFFFE07C0E0000F00E0000B0
:102E9000E00E0000E01F00E0E01B01C0F03B83C03B
:102EA0007CF1EF803FE1FF801FC07E000E1A3412DC
:102EB00002F80FE03FF83C78703C701CF01CE0001A
:102EC000E000E000E000E000E000F01C701C703C5E
:102ED0003C781FF007E0010001E001F000780018E5
:102EE000001807F007E0101C381302001C000E0049
:102EF0000E0007000380018000C0000000000000F9
:102F000007E01FF83C7C781E700EF00EE00EFFFE0E
:102F1000FFFFE000E000E000700E700E781E3E7CC7
:102F20001FF807E0101C38130200007800F000E0E2
:102F300001C001800380030000000000000007E0E2
:102F40001FF83C7C781E700EF00EE00EFFFEFFFFB7
:102F5000E000E000E000700E700E781E3E7C1FF86E
:102F600007E0101C3813020003C007C007E00EE0A2
:102F70000C701830181800000000000007E01FF85F
:102F80003C7C781E700EF00EE00EFFFEFFFFE000AE
:102F9000E000E000700E700E781E3E7C1FF807E027
:102FA0001019321302001C381C381C3800000000B5
:102FB0000000000007E01FF83C3C780E700EF00E99
:102FC000E006FFFEFFFFE000E000E000700E700E84
:102FD000781E3E3C1FF807E0061B1B08FF00F07040
:102FE00038181C0C0000001C1C1C1C1C1C1C1C1C6D
:102FF0001C1C1C1C1C1C1C1C1C061B1B0802001C73
:10300000387070E0C0000000E0E0E0E0E0E0E0E008
:10301000E0E0E0E0E0E0E0E0E0E0091B3608FF008F
:103020003E003E0077007300E380C1800000000096
:1030300000001C001C001C001C001C001C001C00CC
:103040001C001C001C001C001C001C001C001C00A0
:103050001C001C001C000A193208FF00E3C0E3C07A
:10306000E3C000000000000000001C001C001C0069
:103070001C001C001C001C001C001C001C001C0070
:103080001C001C001C001C001C001C001C00111A51
:103090004E150200100400381C001EF80007C00086
:1030A0000FC0003CF000707800003C0007FC001FDF
:1030B000FE003E3F00780F00700700F00780F0032D
:1030C00080E00380E00380E00380E00380E0038091
:1030D000F00700700700780F003E3E001FFC00075D
:1030E000F0000F19321302000F301FF01BE0000038
:1030F000000000000000E3F0EFF8FC7CF81EF01E7A
:10310000E00EE00EE00EE00EE00EE00EE00EE00E4F
:10311000E00EE00EE00EE00EE00E111C5415020071
:103120000E00000F00000700000380000180000077
:10313000C00000E00000000000000000000007F0F8
:10314000001FFC003E3E00780F00700700F00700F3
:10315000F00780E00380E00380E00380E00380F07C
:103160000780F00780700700780F003E3E001FFCCC
:103170000007F000111C5415020000380000780010
:1031800000700000E00000C00001800003000000AB
:10319000000000000000000007F0001FFC003E3EA1
:1031A00000780F00700700F00700F00780E0038050
:1031B000E00380E00380E00380F00780F007807088
:1031C0000700780F003E3E001FFC0007F000111CB6
:1031D0005415020001C00003E00003E00007700086
:1031E0000E38000C18001C1C00000000000000003D
:1031F000000007F0001FFC003E3E00780F00700743
:1032000000F00700F00780E00380E00380E0038027
:10321000E00380F00780F00780700700780F003E21
:103220003E001FFC0007F00011194B150200079823
:10323000000FF8000CF0000000000000000000008B
:1032400000000007F0001FFC003E3E00780F0070F9
:103250000700F00700F00780E00380E00380E00350
:1032600080E00380F00780F00780700700780F008F
:103270003E3E001FFC0007F00011194B1502001C18
:1032800038001C38001C380000000000000000005E
:103290000000000007F0001FFC003E3E00780F0019
:1032A000700700F00700F00780E00380E00380E093
:1032B0000380E00380F00780F00780700700780F3C
:1032C000003E3E001FFC0007F000140F2D220703F4
:1032D00000600000F00000F000006000000000004E
:1032E0000000000000FFFFF0FFFFF0000000000002
:1032F0000000600000F00000F000006000111745C1
:103300001502FE00010000018000038007F7001F86
:10331000FE003E3E00781F00703F00F03780F077DF
:1033200080E0E380E1C380E18380E38380E707807E
:10333000FE07807C07007C0F003E3E007FFC00679C
:10334000F000E00000C000000F1C381302001C0059
:103350001E000E0007000300018001800000000035
:103360000000E00EE00EE00EE00EE00EE00EE00EDB
:10337000E00EE00EE00EE00EE00EE00EF01EF01E9D
:103380007C7E3FEE1F8E0F1C38130200007000F091
:1033900000E001C001800300070000000000000001
:1033A000E00EE00EE00EE00EE00EE00EE00EE00EAD
:1033B000E00EE00EE00EE00EE00EF01EF01E7C7E51
:1033C0003FEE1F8E0F1C38130200038007C007C09A
:1033D0000EE00C6018301830000000000000E00E15
:1033E000E00EE00EE00EE00EE00EE00EE00EE00E6D
:1033F000E00EE00EE00EE00EF01EF01E7C7E3FEED2
:103400001F8E0F19321302003870387038700000A8
:10341000000000000000E00EE00EE00EE00EE00E06
:10342000E00EE00EE00EE00EE00EE00EE00EE00E2C
:10343000F01EF03E7C7E3FEE1F8E1022441201F9FA
:1034400000380070006000E001C001800000000052
:103450000000E007F007700F700E780E381E3C1C5D
:103460001C1C1C3C1E380E780F70077007F007E01C
:1034700003E003E001C001C003800380E780FF0098
:103480007F003E001020401402F9E000E000E00060
:10349000E000E000E000E000E3F0E7F8FE3CF81EAA
:1034A000F00EF00FE007E007E007E007E007E007B5
:1034B000F00FF00EF81EFE7CEFF8E3F0E000E00005
:1034C000E000E000E000E000E0001020401201F920
:1034D0001C381C381C380000000000000000E00709
:1034E000E007F00F700E780E381E3C1C3C1C1C3898
:1034F0001E380E780F700F7007F007E003E003C06E
:1035000003C003C0038003800780070007000F008B
:1035100001070D00FE09015F02CF20FFFE0BFE0A2E
:10352000FE0D00703219798080808080808000805C
:10353000283373A0A0A01357775050F850F850507C
:103540001357772078A07028F02002697944A448A6
:103550001010204894880267776090906094887477
:1035600038137380808022397920404080808040E9
:10357000402022397980404020202040408004654E
:10358000754830FC30481455752020F82020114330
:1035900073706080165171F821337340E040125906
:1035A00079080810102040408080026979304884F2
:1035B0008484848448301259792060A020202020FF
:1035C00020F80269797884840408304080FC02691C
:1035D00079FC0408103804048478026979081828F2
:1035E000488888FC0808026979FC8080B8C4040413
:1035F000847802697938408080B8C484847802690C
:1036000079FC0408101020204040026979788484F5
:103610008478848484780269797884848C7404043E
:10362000087021387840E040000040E040114878C0
:1036300020702000007060801259790810204080AE
:1036400040201008046474FC0000FC12597980408A
:1036500020100810204080026979788484040810C2
:103660001000100269797884849CA4AC948078025C
:1036700069793048848484FC848484026979F844BC
:10368000444478444444F802697978848080808096
:10369000808478026979F844444444444444F802FC
:1036A0006979FC808080F0808080FC026979FC80F0
:1036B0008080F08080808002697978848080809C1E
:1036C000848C7402697984848484FC848484841264
:1036D0005979F820202020202020F80269791C0840
:1036E00008080808088870026979848890A0C0A03A
:1036F0009088840269798080808080808080FC024C
:10370000697984CCCCB4B484848484026979848457
:10371000C4A4948C848484026979788484848484A5
:10372000848478026979F8848484F88080808001B8
:103730006A7A788484848484A4947804026979F809
:10374000848484F8A0908884026979788480807861
:1037500004048478125979F8202020202020202089
:103760000269798484848484848484780269798475
:10377000848448484830303002697984848484B431
:10378000B4CCCC8402697984844848304848848425
:10379000125979888850502020202020026979FC15
:1037A00004081030204080FC114B7BF0808080802A
:1037B0008080808080F012597980804040201010F5
:1037C0000808114B7BF0101010101010101010F0A2
:1037D000185373205088016171FC2A2272804002C4
:1037E000667678047C848C74026979808080B8C4A1
:1037F0008484C4B80266767884808084780269798B
:10380000040404748C84848C740266767884FC804E
:10381000847802697938444040F040404040006874
:10382000787488887080788478026979808080B81C
:10383000C48484848412587820006020202020F8DA
:10384000105A7A08001808080808888870026979F0
:103850008080808890E090888412597960202020B0
:1038600020202020F8125676D0A8A8A8A8880266A2
:1038700076B8C48484848402667678848484847868
:10388000006878B8C484C4B8808080006878748C7C
:10389000848C74040404026676B8444040404002BC
:1038A00066767884601884780268784040F04040FA
:1038B000404438026676848484848C7412567688F8
:1038C00088885050201256768888A8A8A85002668A
:1038D000768448303048840068788484848C74040A
:1038E0008478026676FC08102040FC115B7B38402F
:1038F000404020C02040404038321979808080808C
:103900008080808080115B7BE010101020182010D8
:103910001010E018537348A890FFFFFFFFFFFFFF50
:10392000FFFFFFFFFFFFFFFFFFFFFFFFFFFFFFFFA7
:10393000FFFFFFFFFFFFFFFFFFFF0D007032197950
:103940008000808080808080801358782070A8A0BC
:10395000A0A8702002697938444040E0404044B853
:10396000036676847848487884025979888850506C
:10397000F820F820203219798080808000808080B3
:1039800080124A7A60908060909060109060194236
:103990007290900269797884B4A4A4A4B484781451
:1039A0005777700878887800F8036777142850A054
:1039B000502814145373F80808164171F0026979FD
:1039C0007884B4ACACB4AC84781A5171F8174474F0
:1039D000609090601357772020F8202000F816366A
:1039E0007640A0204080E0163676E0204020A040BF
:1039F0002A2272408001677784848484CCB4800258
:103A000069797CE8E8E86828282828262171C02000
:103A10002272408016367640C0404040E01546761F
:103A20006090906000F0036777A05028142850A0A1
:103A3000026A7A40C0404044EC14141C04026A7AC2
:103A400040C0404048F40408101C026A7AE020405C
:103A500020A44C14141C040269792000202040800A
:103A6000848478026A7A20100030488484FC84843C
:103A7000026A7A10200030488484FC8484026A7AC6
:103A800030480030488484FC8484026A7A64980058
:103A900030488484FC8484026A7A48480030488430
:103AA00084FC8484026A7A30483030488484FC8400
:103AB000840269795CA0A0A0B8E0A0A0BC006B7BE8
:103AC0007884808080808084781020026A7A201038
:103AD00000FC8080F08080FC026A7A102000FC806C
:103AE00080F08080FC026A7A304800FC8080F080A0
:103AF00080FC026A7A484800FC8080F08080FC12DA
:103B00005A7A402000F82020202020F8125A7A20EB
:103B10004000F82020202020F8125A7A205000F887
:103B20002020202020F8125A7A888800F8202020AF
:103B30002020F8026979F8444444E4444444F802FB
:103B40006A7A64980084C4A4A4948C84026A7A205B
:103B5000100078848484848478026A7A1020007843
:103B6000848484848478026A7A30480078848484E7
:103B7000848478026A7A649800788484848484785F
:103B8000026A7A484800788484848484780366765C
:103B9000844830304884016B7B04788C9494A4A4CE
:103BA000A4C47880026A7A20100084848484848487
:103BB00078026A7A10200084848484848478026A7B
:103BC0007A30480084848484848478026A7A4848FD
:103BD0000084848484848478125A7A10200088882F
:103BE000502020202002697980F8848484F8808025
:103BF00080125979609090A0A0908888B00269796D
:103C000020100078047C848C74026979102000787C
:103C1000047C848C7402697930480078047C848C3C
:103C20007402697964980078047C848C74026979E0
:103C300048480078047C848C74026A7A30483000EA
:103C400078047C848C7402667668147C9094680096
:103C50006878788480808478102002697920100048
:103C60007884FC8084780269791020007884FC8054
:103C700084780269793048007884FC80847802690D
:103C8000794848007884FC80847812597940200073
:103C90006020202020F81259792040006020202048
:103CA00020F81259796090006020202020F81259E5
:103CB000799090006020202020F8026A7A483050E5
:103CC00008788484848478026979649800B8C4840C
:103CD0008484840269792010007884848484780242
:103CE0006979102000788484848478026979304866
:103CF0000078848484847802697964980078848464
:103D000084847802697948480078848484847813AC
:103D10005777202000F800202001687804788C94E0
:103D2000A4C47880026979201000848484848C740F
:103D3000026979102000848484848C74026979304B
:103D40004800848484848C7402697948480084849F
:103D500084848C74006B7B1020008484848C7404B5
:103D60008478006A7A8080B8C48484C4B880800073
:103D70006B7B4848008484848C740484780011240C
:103D80001FBECFEFD8E0DEBFCDBF11E0A0E0B1E0B5
:103D9000E4E6FCE602C005900D92A638B107D9F71B
:103DA00023E0A6E8B1E001C01D92AC33B207E1F711
:103DB0000E94A7210C9430360C94000018161906A6
:103DC0005CF420E030E046E04A95F1F700C02F5F58
:103DD0003F4F28173907B9F70895181619066CF4DC
:103DE00020E030E0E7E8F3E13197F1F700C00000B0
:103DF0002F5F3F4F28173907A9F708958EBD0DB4DF
:103E000007FEFDCF8EB50895AF92BF92CF92DF929D
:103E1000EF92FF920F931F93CF93DF9320E030E058
:103E200046E153E46091900170919101809192017B
:103E3000909193010E94EA296B017C0120E030E01F
:103E400040E85FE30E94352B181644F40F2EC12C76
:103E5000D12CF0E8EF2EFFE3FF2EF02D1AE0C0E0AA
:103E6000D0E05E01E894A2F8A114B10419F0C830C2
:103E7000D10541F40CE3212F40E4612F84E892E066
:103E80000E943230CE018D7F8130910511F005976F
:103E900041F40EE3212F40E4612F84E892E00E9478
:103EA000323082E0A816B10441F40DE3212F40E442
:103EB000612F84E892E00E9432302196165F14361A
:103EC00081F620E030E042EA52E4C701B6010E94E8
:103ED000392B0E94572A262F02E049E36AE084E842
:103EE00092E00E94FF33DF91CF911F910F91FF90DD
:103EF000EF90DF90CF90BF90AF9008955D9886E0EF
:103F00008A95F1F700C080E00E94FE1E85E00E94C5
:103F1000FE1E80E00E94FE1E85E00E94FE1E809331
:103F20009D0186E08A95F1F700C05D9A86E08A954A
:103F3000F1F700C080919D01853019F081E08093F8
:103F40009C0108954F925F926F927F92AF92BF92C1
:103F5000CF92DF92EF92FF920F931F93CF93DF9355
:103F6000FC012081318126173707F0F421E030E091
:103F7000448155814617570738F42F5F3F4F3496D9
:103F800029323105A9F703C02932310551F4FC016A
:103F9000E056FF4F6281738180E090E00E94832AA7
:103FA0004FC02115310541F4FC016281738180E02D
:103FB00090E00E94832A44C0F901EE0FFF1FEE0F2C
:103FC000FF1F8C010E0F1F1F3497E80FF91FC281CE
:103FD000D381A080B1806A197B0980E090E00E94C3
:103FE000832A6B017C01F801628173816C1B7D0B5C
:103FF00080E090E00E94832A2B013C01F80160815F
:1040000071816A197B0980E090E00E94832A9B01FC
:10401000AC01C301B2010E94EA299B01AC01C701B6
:10402000B6010E94392B6B017C01BE0180E090E05B
:104030000E94832A9B01AC01C701B6010E9482291C
:10404000DF91CF911F910F91FF90EF90DF90CF9074
:10405000BF90AF907F906F905F904F90089584E6EF
:1040600090E0F99909C06091BE017091BF0180E0B4
:1040700090E00E94083608950197009791F70895FF
:1040800023E041E061E784E892E00E944D3327E0BD
:1040900044E06EE684E892E00E94FE3245E06FE67E
:1040A00084E892E00E94B93145E063E784E892E059
:1040B0000E94B93146E060E784E892E00E94B9319D
:1040C00046E062E784E892E00E94B93147E061E7A8
:1040D00084E892E00E94B93123E049E060E784E897
:1040E00092E00E94FE3227E04AE06EE684E892E029
:1040F0000E94FE3224E04BE06CE684E892E00E94ED
:10410000FE3224E04BE063E784E892E00E94FE3256
:1041100027E04CE06EE684E892E00E94FE3223E065
:104120004DE060E784E892E00E94FE3208959B0132
:1041300021503109121613068CF4DC01A60FB71FAB
:10414000FC0140E050E080819E9191938C934F5F01
:104150005F4F2150310942175307ACF30895EF9296
:10416000FF920F931F93CF93DF938B017A010097F8
:1041700081F0FB01C0E0D0E02AE030E02196B901F7
:104180000E94AA35805D8193862F972F0097B1F703
:1041900002C0C0E0D0E0CE15DF0564F4F801EC0FFA
:1041A000FD1FC8018E0D9F1D20E32193E817F9071D
:1041B000E1F7E701BE01C8010E949720F801EC0F6A
:1041C000FD1F1082CE01DF91CF911F910F91FF90C3
:1041D000EF9008952F923F924F925F926F927F924D
:1041E0008F929F92AF92BF92CF92DF92EF92FF9207
:1041F0000F931F93CF93DF936B017C01EA01890139
:104200000E94522A4B015C0141E050E0BE01C40112
:104210000E94AF201C0101151105B1F1FE01E80F4C
:10422000F91F8EE28083B801882777FD8095982F4B
:104230000E94852A9B01AC0160E070E080E291E47D
:104240000E949C2B2B013C01B401882777FD8095AF
:10425000982F0E94852A9B01AC01C701B6010E94DC
:1042600081299B01AC018FEF281A380AC20DD31D9A
:10427000C301B2010E94392B0E94522ADC01CB01FA
:10428000A801BE010E94AF20DF91CF911F910F9135
:10429000FF90EF90DF90CF90BF90AF909F908F9066
:1042A0007F906F905F904F903F902F9008950F9365
:1042B000CF9360E081E00E943C2D082F67E083E00F
:1042C0000E943C2DC82F66E083E00E943C2D2C2FDD
:1042D000482F63E571E084E892E00E94A130CF911D
:1042E0000F91089580EF8AB980E68BB98FE284B987
:1042F00024E025B980E387B918B886E480937C0070
:1043000087EC80937A0080E098E090938700809318
:104310008600109289001092880082E880938000C5
:104320008CE18093810082E080936F009CE797BDD1
:1043300084BD94E895BD80936E0095E090936900EC
:1043400093E09DBB2093680080936D000895CF9308
:10435000DF93CDB7DEB7E0970FB6F894DEBF0FBEA0
:10436000CDBF0E9472218FE284B985E085B982E5D4
:104370008CBD1DBC0E947E1F0E94572184E690E0E8
:10438000F99909C080E090E00E9402369093BF0145
:104390008093BE0106C00197009791F781E080935A
:1043A000B9018091BE019091BF01892B41F08091AC
:1043B000BE019091BF01853F914008F4CCC38EE5CA
:1043C00091E09093BF018093BE01C5C3FC01EE0F45
:1043D000FF1FEE0FFF1FE253FE4F10821182128269
:1043E000138201968732910589F7F894789486E0D4
:1043F000FE01BB96DF01282F1D922A95E9F736971B
:10440000DF01282F1D922A95E9F73697DF01282F23
:104410001D922A95E9F73697DF01282F1D922A95DC
:10442000E9F73697DF01282F1D922A95E9F736978D
:10443000DF01282F1D922A95E9F73697DF01282FF3
:104440001D922A95E9F73697DF011D928A95E9F7C3
:104450000AE710E04E01B3E18B0E911C1E01E9E169
:104460002E0E311C5E01FFE1AF0EB11C8091BB012D
:10447000813009F0B5C18AE090E00E94ED1E1092F3
:10448000BB0181E4ACE7B0E08C93F80180818064EB
:104490008083D8018C9186FDFCCFE8E7F0E0808135
:1044A00091819093A5018093A40181E4ACE7B0E0F1
:1044B0008C93F801808180648083D8018C9186FD83
:1044C000FCCFE8E7F0E0208131818091A401909158
:1044D000A501820F931F969587959093A7018093CE
:1044E000A6019250BC01992324F466277727681B04
:1044F000790B882777FD8095982F0E94852A20E0E8
:1045000030E048E45DE30E94392B6B017C0160934D
:1045100098017093990180939A0190939B0120E0F8
:1045200030E0A9010E94E62988234CF410929801FA
:104530001092990110929A0110929B0130C020E0D4
:1045400030E040E051E4C701B6010E94352B181657
:104550009CF420E030E040EA51E4C701B6010E943B
:10456000E62988234CF41092980110929901109238
:104570009A0110929B0113C020E030E040EA51E420
:10458000609198017091990180919A0190919B019D
:104590000E94352B88231CF081E08093B90182E4CE
:1045A000ACE7B0E08C93F801808180648083D8010F
:1045B0008C9186FDFCCFE8E7F0E0808191819093BB
:1045C000A1018093A00182E4ACE7B0E08C93F801F4
:1045D000808180648083D8018C9186FDFCCFE8E7E0
:1045E000F0E0608171818091A0019091A101680F3C
:1045F000791F769567957093A3016093A20180E07F
:1046000090E00E94832A21E234E848E35DE30E94BF
:10461000392B6B017C0120E030E040E752E40E943E
:10462000352B18164CF0C0929401D0929501E0926F
:104630009601F092970108C0109294011092950192
:104640001092960110929701209198013091990152
:1046500040919A0150919B01609194017091950154
:1046600080919601909197010E94392B6B017C01FA
:1046700020E030E048E453E40E94352B18164CF05B
:10468000C0929001D0929101E0929201F092930138
:1046900008C0109290011092910110929201109214
:1046A00093018091B801813039F41092B8010E94D1
:1046B0002F2082E08093B4018091B501811130C038
:1046C00080915001882309F449C22AC0F99909C090
:1046D00080E090E00E94023690939F0180939E01BB
:1046E00003C00197009791F780919E0190919F01DF
:1046F0002091BE013091BF01AC014B5F5F4F241789
:10470000350748F42091BE013091BF012B5F3F4F28
:104710008217930728F00E942F2082E08093B40133
:104720008091B501882339F08091B5018150809343
:10473000B501109250018091B601882329F0809133
:10474000B60181508093B6018091B401882329F08D
:104750008091B40181508093B4016091980170916F
:10476000990180919A0190919B0123E030E0AE0184
:10477000455D5F4F0E94EA20609194017091950120
:10478000809196019091970121E030E0AE014B5D60
:104790005F4F0E94EA208091BC019091BD0140E0F2
:1047A00050E0BE01635F7F4F0E94AF208091AC015B
:1047B0009091AD0140E050E0BE01695F7F4F0E94E3
:1047C000AF206091A8017091A9018091AA019091F8
:1047D000AB0123E030E0AE014F5F5F4F0E94EA2063
:1047E0000F2EF6E0FF2EF02DD401EF2D1D92EA954D
:1047F000E9F78091BE019091BF019093870180936A
:10480000860140E050E0B4010E94AF20D1011D922A
:10481000FA94E9F76091AE017091AF018091B00117
:104820009091B1010E94E82B2B013C010E94572A74
:104830006B017C019B01ADECBCEC0E94C4359695EC
:104840008795969587959C01220F331F220F331F62
:10485000820F931FC81AD90AB60180E090E00E9427
:10486000832A6B017C0120E030E040E450E40E94A8
:10487000352B8823BCF0A701960160E070E080EA48
:1048800090E40E9481299B01AC01C301B2010E9406
:104890008229609388017093890180938A019093A3
:1048A0008B0121C020E030E040E450E4C701B601B4
:1048B0000E94E62988234CF0409288015092890199
:1048C00060928A0170928B010EC0A7019601C3010C
:1048D000B2010E94812960938801709389018093BD
:1048E0008A0190938B016091880170918901809178
:1048F0008A0190918B0120E030E0A1010E94EA2022
:1049000086E0F50111928A95E9F760919001709126
:104910009101809192019091930160938C01709329
:104920008D0180938E0190938F0120E030E0A501EE
:104930000E94EA2084E892E00E9459318091BA01F5
:104940008130B9F463E676E084E892E00E94E02FDB
:1049500021E631E049E263E184E892E00E94AE2F73
:1049600027E631E04DE360E084E892E00E94AE2F5C
:10497000E7C08091BA018111E3C08091B401811137
:104980000E94402060E175E384E892E00E94E02FFD
:1049900062EB71E084E892E00E94E02F8091B60122
:1049A000882351F11092B70180918601909187017F
:1049B0008436910540F0940141E362E184E892E09D
:1049C0000E94AE2F58C09C012A5031092A3531056A
:1049D00040F4940141E36AE284E892E00E94AE2F41
:1049E0004AC00A9708F047C0940141E362E484E8B2
:1049F00092E00E94AE2F3FC08091B70181113BC071
:104A00008091B601882309F4AFC035C0910141E31C
:104A100062E184E892E00E94AE2F2DC020E030E0F9
:104A200048EC52E4C701B6010E94E629882394F4B9
:104A300020E030E040E251E4C701B6010E94352B8E
:104A4000882344F0910141E36AE284E892E00E9405
:104A5000AE2F11C020E030E040E251E4C701B601C2
:104A60000E94E62988233CF4910141E362E484E852
:104A700092E00E94AE2F63E676E084E892E00E9426
:104A8000E02F2FE631E040E36AE584E892E00E94FF
:104A9000AE2F60E175E384E892E00E94E02F0E946F
:104AA000041FC0908C01D0908D01E0908E01F09099
:104AB0008F0120E030E040E251E4C701B6010E94DE
:104AC000E629882344F495014FE361E784E892E006
:104AD0000E94AE2F2DC020E030E048EC52E4C70128
:104AE000B6010E94E629882394F420E030E040E2F9
:104AF00051E4C701B6010E94352B882344F095018B
:104B00004FE36AE684E892E00E94AE2F11C020E0F5
:104B100030E048EC52E4C701B6010E94352B8823EF
:104B20003CF095014FE363E684E892E00E94AE2FEB
:104B300022E731E04FE369E784E892E00E94AE2F7C
:104B400084E892E00E9483318111F8CE8AE491E0FA
:104B50000E94B82D8BCC80E090E038CC81E080932F
:104B6000500184E690E0B2CDC0908801D0908901D8
:104B7000E0908A01F0908B0120E030E048EC52E4B4
:104B8000C701B6010E94352B88230CF447CF3ECFD6
:104B90001F920F920FB60F9211248F929F92AF9295
:104BA000BF92CF92DF92EF92FF920F931F932F93BA
:104BB0003F934F935F936F937F938F939F93AF93A5
:104BC000BF93CF93DF93EF93FF93449880E293E0FA
:104BD0000E94DE1E86E480937C001092B301109246
:104BE000BD011092BC018091B301843020F5CAE769
:104BF000D0E008E710E081E090E00E94DE1E8881AE
:104C000080648883888186FDFDCFF8018081918151
:104C10002091BC013091BD01820F931F9093BD0183
:104C20008093BC018091B3018F5F8093B301809129
:104C3000B301843000F36091BC017091BD017695A1
:104C400067957695679580E090E00E94832A0E94A0
:104C5000E82B0E94572A7093BD016093BC0180919C
:104C6000B901813059F08091BC019091BD01893E1C
:104C7000934020F490919C01913081F41092C101F5
:104C80001092C00181E08093BA018091C00190919F
:104C9000C10190938900809388005DC18091B90122
:104CA000811159C1992309F458C155C1F9019F01D6
:104CB0002F5F3F4FD901AA0FBB1FAA0FBB1FA253E3
:104CC000BE4F8D919D910D90BC91A02DEE0FFF1FB9
:104CD000EE0FFF1FE253FE4F80839183A283B383C5
:104CE00080819181A281B3814091CA015091CB0111
:104CF0006091CC017091CD01840F951FA61FB71F45
:104D00008093CA019093CB01A093CC01B093CD01C5
:104D10002732310559F680917A0290917B02A09159
:104D20007C02B0917D024091CA015091CB0160910B
:104D3000CC017091CD01840F951FA61FB71F8093E2
:104D4000CA019093CB01A093CC01B093CD01809187
:104D5000CA019091CB01A091CC01B091CD0180937B
:104D6000C6019093C701A093C801B093C901809177
:104D70007A0290917B02A0917C02B0917D024091D9
:104D80007602509177026091780270917902841BCB
:104D9000950BA60BB70B80936E0290936F02A093B6
:104DA0007002B09371028090720290907302A09092
:104DB0007402B09075028091C6019091C701A091D4
:104DC000C801B091C90120916E0230916F024091EB
:104DD00070025091710275016401CC0CDD1CEE1C57
:104DE000FF1C8C0C9D1CAE1CBF1C75016401CC0CFF
:104DF000DD1CEE1CFF1CCC0CDD1CEE1CFF1CC80CCB
:104E0000D91CEA1CFB1CCC0CDD1CEE1CFF1C4C014D
:104E10005D01880C991CAA1CBB1C880D991DAA1D3C
:104E2000BB1DC80ED91EEA1EFB1EA2E3B0E00E9405
:104E3000D335C60ED71EE81EF91EC0927E02D09250
:104E40007F02E0928002F0928102409151015091E4
:104E5000520180917E0290917F02A0918002B091D8
:104E6000810260E070E0481759076A077B077CF40D
:104E70008091510190915201A0E0B0E080937E02B8
:104E800090937F02A0938002B093810212C0809120
:104E90007E0290917F02A0918002B0918102BB239B
:104EA00044F410927E0210927F02109280021092BF
:104EB000810280917E0290917F02A0918002B09148
:104EC00081029093C1018093C0018091C0019091B3
:104ED000C10190938900809388006091BE01709118
:104EE000BF01C090AE01D090AF01E090B001F09052
:104EF000B1016B5F7F4F80E090E00E94832AA701A1
:104F000096010E94352B882334F16091AE01709197
:104F1000AF018091B0019091B1010091BE0110915B
:104F2000BF0120E030E040EA50E40E9482296B019A
:104F30007C01B80180E090E00E94832A9B01AC01D3
:104F4000C701B6010E94352B88232CF08091B20155
:104F5000882309F46DC0449A7FC01092BA01609111
:104F6000BC017091BD0180E091E00E94A21F60939E
:104F7000AE017093AF018093B0019093B101809125
:104F80007A0290917B02A0917C02B0917D02809385
:104F9000760290937702A0937802B09379026091A1
:104FA000BE017091BF01C090AE01D090AF01E09002
:104FB000B001F090B10180E090E00E94852AA70145
:104FC00096010E9481290E94522A60937A0270936E
:104FD0007B0280937C0290937D0280917A02909173
:104FE0007B02A0917C02B0917D028093720290932B
:104FF0007302A0937402B093750280917A0290912B
:105000007B02A0917C02B0917D0280936A02909312
:105010006B02A0936C02B0936D021092CA011092C1
:10502000CB011092CC011092CD01E0E0F0E03FCE38
:1050300081E08093B2015C9A83E090E00E94ED1ED3
:105040005C9883E090E00E94ED1E5C9A83E090E023
:105050000E94ED1E5C987FCFFF91EF91DF91CF9181
:10506000BF91AF919F918F917F916F915F914F9180
:105070003F912F911F910F91FF90EF90DF90CF9074
:10508000BF90AF909F908F900F900FBE0F901F908A
:1050900018951F920F920FB60F9211242F938F9392
:1050A0009F938091C2019091C30101969093C30197
:1050B0008093C2018091C2019091C30189339140D4
:1050C00019F481E08093BB018091C2019091C301EA
:1050D00081379240D0F081E08093BB011092C301F0
:1050E0001092C2018091C4019091C50101969093E4
:1050F000C5018093C4018091C4019091C501CC97F2
:1051000020F01092C5011092C4019F918F912F91B0
:105110000F900FBE0F901F9018951F920F920FB611
:105120000F9211242F933F934F935F936F938F931D
:105130009F93EF93FF9340918302440F440F40935A
:10514000830259B169B163FB882780F990E0880F29
:10515000991F842B52FB222720F930E0822B932BBE
:10516000809383022091BE013091BF018F70E82FA0
:10517000F0E0EC58FE4F8081A901480F511D87FDDA
:105180005A955093BF014093BE018091BE0190910A
:10519000BF01893E9340A8F48091BE019091BF0168
:1051A0008091BE019091BF01893E934070F481E0EF
:1051B0008093B70184E08093B6018AE08093B501C3
:1051C00004C01092BF011092BE01FF91EF919F9118
:1051D0008F916F915F914F913F912F910F900FBEE3
:1051E0000F901F9018951F920F920FB60F921124D7
:1051F0002F933F934F935F936F938F939F93EF936F
:10520000FF9340918302440F440F4093830259B1AE
:1052100069B163FB882780F990E0880F991F842B80
:1052200052FB222720F930E0822B932B80938302BC
:105230002091BE013091BF018F70E82FF0E0EC5853
:10524000FE4F8081A901480F511D87FD5A9550934B
:10525000BF014093BE018091BE019091BF01893E84
:105260009340A8F48091BE019091BF018091BE014E
:105270009091BF01893E934070F481E08093B70123
:1052800084E08093B6018AE08093B50104C0109257
:10529000BF011092BE01FF91EF919F918F916F918D
:1052A0005F914F913F912F910F900FBE0F901F90E4
:1052B00018951F920F920FB60F9211242F933F93C0
:1052C0008F939F9320918202220F2093820239B103
:1052D00031FB882780F9822B8093820281FF08C0EE
:1052E00081E08093B8018093B70184E08093B60198
:1052F0009F918F913F912F910F900FBE0F901F9014
:1053000018955058BB27AA270ED075C166D130F02A
:105310006BD120F031F49F3F11F41EF45BC10EF409
:10532000E095E7FB51C1E92F77D180F3BA17620707
:1053300073078407950718F071F49EF58FC10EF47A
:10534000E0950B2EBA2FA02D0B01B90190010C0195
:10535000CA01A0011124FF27591B99F0593F50F4AD
:10536000503E68F11A16F040A22F232F342F442705
:10537000585FF3CF469537952795A795F0405395FD
:10538000C9F77EF41F16BA0B620B730B840BBAF0CD
:105390009150A1F0FF0FBB1F661F771F881FC2F738
:1053A0000EC0BA0F621F731F841F48F4879577954C
:1053B0006795B795F7959E3F08F0B3CF9395880F03
:1053C00008F09927EE0F979587950895D9D008F49E
:1053D00081E008950CD00FC107D140F0FED030F02D
:1053E00021F45F3F19F0F0C0511139C1F3C014D15D
:1053F00098F39923C9F35523B1F3951B550BBB279C
:10540000AA2762177307840738F09F5F5F4F220F48
:10541000331F441FAA1FA9F333D00E2E3AF0E0E841
:1054200030D091505040E695001CCAF729D0FE2F8D
:1054300027D0660F771F881FBB1F2617370748071F
:10544000AB07B0E809F0BB0B802DBF01FF279358D5
:105450005F4F2AF09E3F510568F0B6C000C15F3F24
:10546000ECF3983EDCF3869577956795B795F795BD
:105470009F5FC9F7880F911D9695879597F90895B5
:10548000E1E0660F771F881FBB1F62177307840751
:10549000BA0720F0621B730B840BBA0BEE1F88F760
:1054A000E095089504D06894B111D9C00895BCD096
:1054B00088F09F5790F0B92F9927B751A0F0D1F0FD
:1054C000660F771F881F991F1AF0BA95C9F712C087
:1054D000B13081F0C3D0B1E00895C0C0672F782FFC
:1054E0008827B85F39F0B93FCCF3869577956795F3
:1054F000B395D9F73EF490958095709561957F4F5F
:105500008F4F9F4F0895E89409C097FB3EF4909504
:105510008095709561957F4F8F4F9F4F9923A9F08C
:10552000F92F96E9BB279395F6958795779567951B
:10553000B795F111F8CFFAF4BB0F11F460FF1BC05F
:105540006F5F7F4F8F4F9F4F16C0882311F096E9F2
:1055500011C0772321F09EE8872F762F05C06623A0
:1055600071F096E8862F70E060E02AF09A95660F59
:10557000771F881FDAF7880F9695879597F9089512
:10558000990F0008550FAA0BE0E8FEEF1616170654
:10559000E807F907C0F012161306E407F50798F0BC
:1055A000621B730B840B950B39F40A2661F0232BD5
:1055B000242B252B21F408950A2609F4A140A69551
:1055C0008FEF811D811D089597F99F6780E870E036
:1055D00060E008959FEF80EC089500240A94161669
:1055E000170618060906089500240A9412161306D1
:1055F000140605060895092E0394000C11F488235F
:1056000052F0BB0F40F4BF2B11F460FF04C06F5F7A
:105610007F4F8F4F9F4F089557FD9058440F551F50
:1056200059F05F3F71F04795880F97FB991F61F024
:105630009F3F79F087950895121613061406551F9B
:10564000F2CF4695F1DF08C0161617061806991F07
:10565000F1CF86957105610508940895E894BB27FC
:1056600066277727CB0197F908958ADF08F48FEF33
:1056700008950BD0C0CFB1DF28F0B6DF18F0952326
:1056800009F0A2CFA7CF1124EACFC6DFA0F3959FE0
:10569000D1F3950F50E0551F629FF001729FBB2719
:1056A000F00DB11D639FAA27F00DB11DAA1F649FC5
:1056B0006627B00DA11D661F829F2227B00DA11D78
:1056C000621F739FB00DA11D621F839FA00D611DFE
:1056D000221F749F3327A00D611D231F849F600D1F
:1056E000211D822F762F6A2F11249F5750408AF058
:1056F000E1F088234AF0EE0FFF1FBB1F661F771FE4
:10570000881F91505040A9F79E3F510570F05CCF23
:10571000A6CF5F3FECF3983EDCF3869577956795CF
:10572000B795F795E7959F5FC1F7FE2B880F911D01
:105730009695879597F90895FA01EE0FFF1F309619
:105740002105310599F16115710561F48038BFE3D8
:105750009B0749F168949038810561F08038BFEF6C
:105760009B0741F0992342F5FF3FE10531052105F3
:1057700011F1E8940894E795D901AA2329F4AB2FF5
:10578000BE2FF85FD0F310C0FF5F70F4A695E0F76E
:10579000F73950F019F0FF3A38F49F779F930CD007
:1057A0000F9007FC905808953EF014CF60E070E031
:1057B00080E89FE308954FE79F775F934F933F9370
:1057C0002F93E7D02F913F914F915F9152DF25C0EA
:1057D0002BDFE0F09E37D8F09639B8F49E3848F4C5
:1057E000672F782F8827985FF9CF869577956795EB
:1057F00093959539D0F3B62FB1706B0F711D811D44
:1058000020F4879577956795939533C04DC027CF42
:1058100019F40EF0D9CE22CFDDCE06DFC8F39638CC
:10582000C0F707F80F92E8942BE33AEA48EB5FE7FA
:105830002EDF0F920F920F924DB75EB70F92E9D005
:10584000E8E6F0E03FD04F915F91EF91FF91E59551
:10585000EE1FFF1F49F0FE57E0684427EE0F441F7C
:10586000FA95E1F74195550B5BD00F9007FE4FC0BD
:105870000895882371F4772321F09850872B762F91
:1058800007C0662311F499270DC09051862B70E054
:1058900060E02AF09A95660F771F881FDAF7880F65
:1058A0009695879597F908959F3F31F0915020F490
:1058B000879577956795B795880F911D96958795EC
:1058C00097F90895DF93CF931F930F93FF92EF9271
:1058D000DF927B018C01689405C0DA2EEF01D5DEE2
:1058E000FE01E894A5912591359145915591AEF32E
:1058F000EF0119DDFE019701A801DA9479F7DF9035
:10590000EF90FF900F911F91CF91DF9108959B0130
:10591000AC0160E070E080E89FE35CCD55CEC4CF81
:1059200083DEE8F39923D9F3940F511DBBF3915013
:10593000504094F059F0882332F0660F771F881F8B
:1059400091505040C1F79E3F510544F7880F911D7B
:105950009695879597F908955F3FACF0983E9CF037
:10596000BB27869577956795B79508F4B1609395B1
:10597000C1F7BB0F58F711F460FFE8CF6F5F7F4F9F
:105980008F4F9F4FE3CF6BCE0EF08ECF23CE689418
:105990001BCE4ADEC8F39923D1F3C6F3DF93CF932E
:1059A0001F930F93FF92C92FDD2788232AF0219799
:1059B000660F771F881FDAF720E030E040E85FEBE2
:1059C0009FE3883920F0803E30F021968F779ADC73
:1059D000E0E9F0E003C096DCEDEBF0E073DF8B0173
:1059E000BE01EC01FB2E6F5771097595771F880B6F
:1059F000990B8BDD28E132E741E35FE346DEAF2D13
:105A00009801AE01FF900F911F91CF91DF918BDC38
:105A1000F2CDFA01DC01AA0FBB1F9B01AC01BF57FD
:105A200028F422273327442750781FC0B75188F421
:105A3000AB2F0024469537952795011CA395D2F3EB
:105A4000002069F0220F331F441FB395DAF30DD005
:105A500058CC61307105A0E88A07B94630F49B0143
:105A6000AC016627772788279078309621F020832D
:105A70003183428353830895880F880F880F860FE0
:105A800008951F93CF93DF9300D0CDB7DEB7860F75
:105A9000911DFC0113A11F3FD9F0612F66956695FA
:105AA000669570E0660F771F68597E4F42E050E0C0
:105AB000CE0101960E94F235E981FA8120811770AA
:105AC00081E090E001C0880F1A95EAF7282B208327
:105AD0000F900F90DF91CF911F9108950F931F9317
